:020000040000FA
:100000000C945D000C9485000C9485000C94850084
:100010000C9485000C9485000C9485000C9485004C
:100020000C9485000C9485000C9485000C9485003C
:100030000C9485000C9485000C9485000C9485002C
:100040000C94BE020C9485000C9485000C948500E1
:100050000C9485000C9485000C9485000C9485000C
:100060000C9485000C94850000000008000201003B
:100070000003040700000000000000000000000072
:10008000250028002B0000000000240027002A0083
:10009000040404040404040402020202020203032E
:1000A0000303030301020408102040800102040836
:1000B0001020010204081020900311241FBECFEF6E
:1000C000D8E0DEBFCDBF11E0A0E0B1E0ECE6F7E0A4
:1000D00002C005900D92A832B107D9F721E0A8E23D
:1000E000B1E001C01D92A934B207E1F710E0CDE5FF
:1000F000D0E004C02197FE010E94AE03CC35D107A9
:10010000C9F70E9408030C94B4030C94000090E01B
:10011000FC01EC55FF4F249180579F4FFC018491C7
:10012000882399F090E0880F991FFC01EA57FF4F50
:10013000A591B491FC01E458FF4F859194918FB73C
:10014000F894EC91E22BEC938FBF089590E0FC01C2
:10015000E859FF4F2491FC01EC55FF4F3491FC010D
:10016000E057FF4FE491EE23C9F0222339F023300A
:1001700001F1A8F4213019F1223029F1F0E0EE0F5D
:10018000FF1FE458FF4FA591B4918FB7F894EC91FD
:10019000611126C030953E233C938FBF08952730D0
:1001A000A9F02830C9F0243049F7809180008F7D74
:1001B00003C0809180008F7780938000DFCF84B56B
:1001C0008F7784BDDBCF84B58F7DFBCF8091B0006E
:1001D0008F778093B000D2CF8091B0008F7DF9CF20
:1001E0003E2BDACF3FB7F89480912D0190912E01EC
:1001F000A0912F01B091300126B5A89B05C02F3FDB
:1002000019F00196A11DB11D3FBFBA2FA92F982F3C
:100210008827BC01CD01620F711D811D911D42E037
:10022000660F771F881F991F4A95D1F708958F92FF
:100230009F92AF92BF92CF92DF92EF92FF924B01CB
:100240005C010E94F2006B017C010E94F2006C19BB
:100250007D098E099F09683E734081059105A8F3C9
:1002600021E0821A9108A108B10888EEC80E83E047
:10027000D81EE11CF11C81149104A104B10429F7DA
:10028000FF90EF90DF90CF90BF90AF909F908F90B6
:100290000895AF92BF92CF92DF92EF92FF920F93A9
:1002A0001F93CF93DF936C017B018B01040F151F0C
:1002B000EB015E01AE18BF08C017D10759F0699174
:1002C000D601ED91FC910190F081E02DC6010995D8
:1002D000892B79F7C501DF91CF911F910F91FF9085
:1002E000EF90DF90CF90BF90AF900895089590E089
:1002F00080E00895CF93DF93EC0160E08E810E944F
:10030000A60061E08E810E94A60060E08E810E94BE
:10031000A6008BE891E00197F1F7DF91CF91089566
:10032000CF92DF92EF92FF920F931F93CF93DF93C1
:100330006C017C0187E0E80EF11CD0E0C0E0062FE4
:1003400010E0B8010C2E02C0759567950A94E2F78B
:100350006170F70181917F010E94A6002196C4304F
:10036000D10579F7C601DF91CF911F910F91FF90D1
:10037000EF90DF90CF900C947A01CF92DF92EF92C2
:10038000FF920F931F93CF93DF93EC01F62E642F10
:100390008C810E94A6008D818F3F19F060E00E9441
:1003A000A6000F2D10E08F8584FF25C06E0187E029
:1003B000C80ED11CF12CE12CB8010E2C02C0759591
:1003C00067950A94E2F76170F60181916F010E94CE
:1003D000A600FFEFEF1AFF0A88E0E816F10461F7C4
:1003E000CE01DF91CF911F910F91FF90EF90DF90A1
:1003F000CF900C947A01B80184E0759567958A9541
:10040000E1F7CE010E9490016F2DCE01DF91CF91D7
:100410001F910F91FF90EF90DF90CF900C9490017F
:1004200040E0682F81E391E00C94BD01CF93DF930E
:10043000823029F49091400198609093400180931C
:1004400044011092450180E48093460180E180934D
:10045000470180E580934801809135010E94870023
:10046000809136018F3F11F00E9487008091370103
:100470000E948700C1E3D1E09E0121533140809169
:10048000400184FD0AC084E090E0219628173907D6
:100490003CF48E810E948700EFCF88E090E0F5CF9A
:1004A0008BE39DE00197F1F760E0809135010E94B8
:1004B000A60060E0809137010E94A600809136017D
:1004C0008F3F19F060E00E94A6008091400184FDFA
:1004D00039C063E081E391E00E949001CBE4D6E46F
:1004E000CE010197F1F763E081E391E00E94900172
:1004F0002197F1F763E081E391E00E94900183E5A9
:1005000092E00197F1F762E081E391E00E949001AF
:100510008091400180620E94100284E0809341013A
:100520008CE00E94100281E00E9410028BE39FE1A8
:100530000197F1F782E08093420186E0DF91CF914D
:100540000C94100280620E9410028BE496E40197E2
:10055000F1F78091400180620E94100283E592E0F1
:100560000197F1F78091400180620E941002D0CF84
:1005700041E00E94BD0181E090E008951F920F923A
:100580000FB60F9211242F933F938F939F93AF93A6
:10059000BF938091290190912A01A0912B01B091E4
:1005A0002C013091280123E0230F2D3758F50196B7
:1005B000A11DB11D209328018093290190932A0148
:1005C000A0932B01B0932C0180912D0190912E01CD
:1005D000A0912F01B09130010196A11DB11D809312
:1005E0002D0190932E01A0932F01B0933001BF9164
:1005F000AF919F918F913F912F910F900FBE0F90D0
:100600001F90189526E8230F0296A11DB11DD2CF89
:10061000789484B5826084BD84B5816084BD85B5DD
:10062000826085BD85B5816085BD80916E008160E9
:1006300080936E001092810080918100826080938F
:100640008100809181008160809381008091800091
:100650008160809380008091B10084608093B100BC
:100660008091B00081608093B00080917A008460B6
:1006700080937A0080917A00826080937A008091E2
:100680007A00816080937A0080917A0080688093FC
:100690007A001092C10082E00E9416024CE050E005
:1006A0006CE071E081E391E00E944901E091440136
:1006B000E230A0F5E150F0E0EF5CFE4F8489806805
:1006C0000E9410024AE050E069E171E081E391E0AC
:1006D0000E94490160ED77E080E090E00E94170100
:1006E000CBE3DFE100E010E081E00E941002CE01E8
:1006F0000197F1F743E050E064E271E081E391E0BB
:100700000E94490164EF71E080E090E00E941701CF
:100710000115110549F30E940000E6CFE1E0CBCFBF
:10072000E1E3F1E01382128284E091E0918380831F
:100730008CE084838FEF85838BE0868385E08783DD
:1007400084E0808783E0818782E082871386148635
:1007500015861686178681E00C941602EE0FFF1F91
:100760000590F491E02D0994F894FFCF000000006B
:10077000B8024901770176014C616C697468617354
:10078000687265650031444232304543303434008C
:040790004543450098
:107E0000112484B714BE81FFF0D085E080938100F7
:107E100082E08093C00088E18093C10086E0809377
:107E2000C20080E18093C4008EE0C9D0259A86E02C
:107E300020E33CEF91E0309385002093840096BBD3
:107E4000B09BFECF1D9AA8958150A9F7CC24DD24C4
:107E500088248394B5E0AB2EA1E19A2EF3E0BF2EE7
:107E6000A2D0813461F49FD0082FAFD0023811F036
:107E7000013811F484E001C083E08DD089C08234E0
:107E800011F484E103C0853419F485E0A6D080C0E4
:107E9000853579F488D0E82EFF2485D0082F10E0AE
:107EA000102F00270E291F29000F111F8ED06801E7
:107EB0006FC0863521F484E090D080E0DECF843638
:107EC00009F040C070D06FD0082F6DD080E0C81688
:107ED00080E7D80618F4F601B7BEE895C0E0D1E017
:107EE00062D089930C17E1F7F0E0CF16F0E7DF06D8
:107EF00018F0F601B7BEE89568D007B600FCFDCFD4
:107F0000A601A0E0B1E02C9130E011968C91119780
:107F100090E0982F8827822B932B1296FA010C0160
:107F200087BEE89511244E5F5F4FF1E0A038BF0790
:107F300051F7F601A7BEE89507B600FCFDCF97BE46
:107F4000E89526C08437B1F42ED02DD0F82E2BD052
:107F50003CD0F601EF2C8F010F5F1F4F84911BD097
:107F6000EA94F801C1F70894C11CD11CFA94CF0C13
:107F7000D11C0EC0853739F428D08EE10CD085E9AC
:107F80000AD08FE07ACF813511F488E018D01DD067
:107F900080E101D065CF982F8091C00085FFFCCF94
:107FA0009093C60008958091C00087FFFCCF809118
:107FB000C00084FD01C0A8958091C6000895E0E648
:107FC000F0E098E1908380830895EDDF803219F02E
:107FD00088E0F5DFFFCF84E1DECF1F93182FE3DFCA
:107FE0001150E9F7F2DF1F91089580E0E8DFEE27F6
:047FF000FF270994CA
:027FFE00040479
:00000001FF
